{
  "contractName": "SteamTrader",
  "abi": [
    {
      "constant": true,
      "inputs": [],
      "name": "contractFeePerc",
      "outputs": [
        {
          "name": "",
          "type": "uint8"
        }
      ],
      "payable": false,
      "stateMutability": "view",
      "type": "function"
    },
    {
      "constant": true,
      "inputs": [],
      "name": "oraclePayment",
      "outputs": [
        {
          "name": "",
          "type": "uint256"
        }
      ],
      "payable": false,
      "stateMutability": "view",
      "type": "function"
    },
    {
      "constant": true,
      "inputs": [],
      "name": "lockTime",
      "outputs": [
        {
          "name": "",
          "type": "uint256"
        }
      ],
      "payable": false,
      "stateMutability": "view",
      "type": "function"
    },
    {
      "constant": true,
      "inputs": [
        {
          "name": "",
          "type": "bytes32"
        }
      ],
      "name": "requestTracker",
      "outputs": [
        {
          "name": "",
          "type": "bytes32"
        }
      ],
      "payable": false,
      "stateMutability": "view",
      "type": "function"
    },
    {
      "constant": true,
      "inputs": [],
      "name": "owner",
      "outputs": [
        {
          "name": "",
          "type": "address"
        }
      ],
      "payable": false,
      "stateMutability": "view",
      "type": "function"
    },
    {
      "constant": true,
      "inputs": [
        {
          "name": "",
          "type": "bytes32"
        }
      ],
      "name": "tradeStatus",
      "outputs": [
        {
          "name": "init",
          "type": "bool"
        },
        {
          "name": "sellTransferInitiated",
          "type": "bool"
        },
        {
          "name": "refundInitiated",
          "type": "bool"
        },
        {
          "name": "lockBlockTimestamp",
          "type": "uint256"
        },
        {
          "name": "complete",
          "type": "bool"
        },
        {
          "name": "depositBalance",
          "type": "uint256"
        },
        {
          "name": "sellerHoldsItem",
          "type": "bool"
        },
        {
          "name": "buyerHoldsItem",
          "type": "bool"
        }
      ],
      "payable": false,
      "stateMutability": "view",
      "type": "function"
    },
    {
      "constant": true,
      "inputs": [],
      "name": "isOwner",
      "outputs": [
        {
          "name": "",
          "type": "bool"
        }
      ],
      "payable": false,
      "stateMutability": "view",
      "type": "function"
    },
    {
      "constant": true,
      "inputs": [],
      "name": "jobId",
      "outputs": [
        {
          "name": "",
          "type": "bytes32"
        }
      ],
      "payable": false,
      "stateMutability": "view",
      "type": "function"
    },
    {
      "constant": true,
      "inputs": [
        {
          "name": "",
          "type": "address"
        }
      ],
      "name": "withdrawableLinkTokens",
      "outputs": [
        {
          "name": "",
          "type": "uint256"
        }
      ],
      "payable": false,
      "stateMutability": "view",
      "type": "function"
    },
    {
      "constant": true,
      "inputs": [
        {
          "name": "",
          "type": "bytes32"
        }
      ],
      "name": "trade",
      "outputs": [
        {
          "name": "tradeId",
          "type": "bytes32"
        },
        {
          "components": [
            {
              "name": "addr",
              "type": "address"
            },
            {
              "name": "steamId",
              "type": "string"
            }
          ],
          "name": "buyer",
          "type": "tuple"
        },
        {
          "components": [
            {
              "name": "addr",
              "type": "address"
            },
            {
              "name": "steamId",
              "type": "string"
            }
          ],
          "name": "seller",
          "type": "tuple"
        },
        {
          "name": "appId",
          "type": "uint16"
        },
        {
          "name": "inventoryContext",
          "type": "uint8"
        },
        {
          "components": [
            {
              "name": "assetid",
              "type": "uint64"
            },
            {
              "name": "classid",
              "type": "uint64"
            },
            {
              "name": "instanceid",
              "type": "uint64"
            }
          ],
          "name": "item",
          "type": "tuple"
        },
        {
          "name": "askingPrice",
          "type": "uint256"
        }
      ],
      "payable": false,
      "stateMutability": "view",
      "type": "function"
    },
    {
      "constant": false,
      "inputs": [
        {
          "name": "newOwner",
          "type": "address"
        }
      ],
      "name": "transferOwnership",
      "outputs": [],
      "payable": false,
      "stateMutability": "nonpayable",
      "type": "function"
    },
    {
      "inputs": [
        {
          "name": "_link",
          "type": "address"
        }
      ],
      "payable": false,
      "stateMutability": "nonpayable",
      "type": "constructor"
    },
    {
      "anonymous": false,
      "inputs": [
        {
          "indexed": true,
          "name": "tradeId",
          "type": "bytes32"
        }
      ],
      "name": "TradeCreated",
      "type": "event"
    },
    {
      "anonymous": false,
      "inputs": [
        {
          "indexed": true,
          "name": "tradeId",
          "type": "bytes32"
        }
      ],
      "name": "FundingSecured",
      "type": "event"
    },
    {
      "anonymous": false,
      "inputs": [
        {
          "indexed": false,
          "name": "sender",
          "type": "address"
        },
        {
          "indexed": false,
          "name": "amount",
          "type": "uint256"
        },
        {
          "indexed": false,
          "name": "data",
          "type": "bytes"
        }
      ],
      "name": "LinkReceived",
      "type": "event"
    },
    {
      "anonymous": false,
      "inputs": [
        {
          "indexed": true,
          "name": "tradeId",
          "type": "bytes32"
        }
      ],
      "name": "SaleLocked",
      "type": "event"
    },
    {
      "anonymous": false,
      "inputs": [
        {
          "indexed": true,
          "name": "tradeId",
          "type": "bytes32"
        }
      ],
      "name": "SaleCompleted",
      "type": "event"
    },
    {
      "anonymous": false,
      "inputs": [
        {
          "indexed": true,
          "name": "tradeId",
          "type": "bytes32"
        }
      ],
      "name": "SellerHasItem",
      "type": "event"
    },
    {
      "anonymous": false,
      "inputs": [
        {
          "indexed": true,
          "name": "tradeId",
          "type": "bytes32"
        }
      ],
      "name": "BuyerHasItem",
      "type": "event"
    },
    {
      "anonymous": false,
      "inputs": [
        {
          "indexed": true,
          "name": "tradeId",
          "type": "bytes32"
        }
      ],
      "name": "RefundRequested",
      "type": "event"
    },
    {
      "anonymous": false,
      "inputs": [
        {
          "indexed": true,
          "name": "tradeId",
          "type": "bytes32"
        }
      ],
      "name": "RefundGranted",
      "type": "event"
    },
    {
      "anonymous": false,
      "inputs": [
        {
          "indexed": true,
          "name": "previousOwner",
          "type": "address"
        },
        {
          "indexed": true,
          "name": "newOwner",
          "type": "address"
        }
      ],
      "name": "OwnershipTransferred",
      "type": "event"
    },
    {
      "anonymous": false,
      "inputs": [
        {
          "indexed": true,
          "name": "id",
          "type": "bytes32"
        }
      ],
      "name": "ChainlinkRequested",
      "type": "event"
    },
    {
      "anonymous": false,
      "inputs": [
        {
          "indexed": true,
          "name": "id",
          "type": "bytes32"
        }
      ],
      "name": "ChainlinkFulfilled",
      "type": "event"
    },
    {
      "anonymous": false,
      "inputs": [
        {
          "indexed": true,
          "name": "id",
          "type": "bytes32"
        }
      ],
      "name": "ChainlinkCancelled",
      "type": "event"
    },
    {
      "constant": false,
      "inputs": [
        {
          "name": "_uuid",
          "type": "bytes32"
        },
        {
          "name": "_steamId",
          "type": "string"
        },
        {
          "name": "_askingPrice",
          "type": "uint256"
        },
        {
          "name": "_assetid",
          "type": "uint64"
        },
        {
          "name": "_classid",
          "type": "uint64"
        },
        {
          "name": "_instanceid",
          "type": "uint64"
        },
        {
          "name": "_appId",
          "type": "uint16"
        },
        {
          "name": "_inventoryContext",
          "type": "uint8"
        }
      ],
      "name": "createTrade",
      "outputs": [],
      "payable": false,
      "stateMutability": "nonpayable",
      "type": "function"
    },
    {
      "constant": false,
      "inputs": [
        {
          "name": "_tradeId",
          "type": "bytes32"
        }
      ],
      "name": "requestTradeItemValidation",
      "outputs": [],
      "payable": false,
      "stateMutability": "nonpayable",
      "type": "function"
    },
    {
      "constant": false,
      "inputs": [
        {
          "name": "_tradeId",
          "type": "bytes32"
        },
        {
          "name": "_steamId",
          "type": "string"
        }
      ],
      "name": "buyItem",
      "outputs": [],
      "payable": true,
      "stateMutability": "payable",
      "type": "function"
    },
    {
      "constant": false,
      "inputs": [
        {
          "name": "_tradeId",
          "type": "bytes32"
        }
      ],
      "name": "startTrade",
      "outputs": [],
      "payable": false,
      "stateMutability": "nonpayable",
      "type": "function"
    },
    {
      "constant": false,
      "inputs": [
        {
          "name": "_tradeId",
          "type": "bytes32"
        }
      ],
      "name": "requestTradeConfirmation",
      "outputs": [],
      "payable": false,
      "stateMutability": "nonpayable",
      "type": "function"
    },
    {
      "constant": false,
      "inputs": [
        {
          "name": "_tradeId",
          "type": "bytes32"
        }
      ],
      "name": "requestEthRefund",
      "outputs": [],
      "payable": false,
      "stateMutability": "nonpayable",
      "type": "function"
    },
    {
      "constant": true,
      "inputs": [],
      "name": "getChainlinkToken",
      "outputs": [
        {
          "name": "",
          "type": "address"
        }
      ],
      "payable": false,
      "stateMutability": "view",
      "type": "function"
    },
    {
      "constant": false,
      "inputs": [
        {
          "name": "_requestId",
          "type": "bytes32"
        },
        {
          "name": "_itemFound",
          "type": "bool"
        }
      ],
      "name": "fulfillTradeItemValidation",
      "outputs": [],
      "payable": false,
      "stateMutability": "nonpayable",
      "type": "function"
    },
    {
      "constant": false,
      "inputs": [
        {
          "name": "_requestId",
          "type": "bytes32"
        },
        {
          "name": "_itemFound",
          "type": "bool"
        }
      ],
      "name": "fulfillBuyerCheck",
      "outputs": [],
      "payable": false,
      "stateMutability": "nonpayable",
      "type": "function"
    },
    {
      "constant": false,
      "inputs": [
        {
          "name": "_requestId",
          "type": "bytes32"
        },
        {
          "name": "_itemFound",
          "type": "bool"
        }
      ],
      "name": "fulfillSellerCheck",
      "outputs": [],
      "payable": false,
      "stateMutability": "nonpayable",
      "type": "function"
    },
    {
      "constant": true,
      "inputs": [],
      "name": "viewWithdrawableEtherFees",
      "outputs": [
        {
          "name": "",
          "type": "uint256"
        }
      ],
      "payable": false,
      "stateMutability": "view",
      "type": "function"
    },
    {
      "constant": false,
      "inputs": [
        {
          "name": "_amount",
          "type": "uint256"
        }
      ],
      "name": "withdrawEtherFees",
      "outputs": [],
      "payable": false,
      "stateMutability": "nonpayable",
      "type": "function"
    },
    {
      "constant": false,
      "inputs": [
        {
          "name": "_perc",
          "type": "uint8"
        }
      ],
      "name": "setFeePerc",
      "outputs": [],
      "payable": false,
      "stateMutability": "nonpayable",
      "type": "function"
    },
    {
      "constant": false,
      "inputs": [
        {
          "name": "_amount",
          "type": "uint256"
        }
      ],
      "name": "setOraclePayment",
      "outputs": [],
      "payable": false,
      "stateMutability": "nonpayable",
      "type": "function"
    },
    {
      "constant": false,
      "inputs": [
        {
          "name": "_requestId",
          "type": "bytes32"
        },
        {
          "name": "_payment",
          "type": "uint256"
        },
        {
          "name": "_callbackFunctionId",
          "type": "bytes4"
        },
        {
          "name": "_expiration",
          "type": "uint256"
        }
      ],
      "name": "cancelRequest",
      "outputs": [],
      "payable": false,
      "stateMutability": "nonpayable",
      "type": "function"
    },
    {
      "constant": false,
      "inputs": [
        {
          "name": "_time",
          "type": "uint256"
        }
      ],
      "name": "setLockTime",
      "outputs": [],
      "payable": false,
      "stateMutability": "nonpayable",
      "type": "function"
    },
    {
      "constant": false,
      "inputs": [
        {
          "name": "_oracle",
          "type": "address"
        },
        {
          "name": "_jobId",
          "type": "bytes32"
        }
      ],
      "name": "setOracleAddress",
      "outputs": [],
      "payable": false,
      "stateMutability": "nonpayable",
      "type": "function"
    },
    {
      "constant": false,
      "inputs": [
        {
          "name": "_sender",
          "type": "address"
        },
        {
          "name": "_amount",
          "type": "uint256"
        },
        {
          "name": "_data",
          "type": "bytes"
        }
      ],
      "name": "onTokenTransfer",
      "outputs": [],
      "payable": false,
      "stateMutability": "nonpayable",
      "type": "function"
    },
    {
      "constant": true,
      "inputs": [
        {
          "name": "_account",
          "type": "address"
        }
      ],
      "name": "balanceOfLink",
      "outputs": [
        {
          "name": "",
          "type": "uint256"
        }
      ],
      "payable": false,
      "stateMutability": "view",
      "type": "function"
    },
    {
      "constant": false,
      "inputs": [
        {
          "name": "_recipient",
          "type": "address"
        },
        {
          "name": "_amount",
          "type": "uint256"
        }
      ],
      "name": "withdrawLink",
      "outputs": [],
      "payable": false,
      "stateMutability": "nonpayable",
      "type": "function"
    }
  ],
  "bytecode": "0x608060405260016004553480156200001657600080fd5b50604051602080620061338339810180604052620000389190810190620002cb565b33600660006101000a81548173ffffffffffffffffffffffffffffffffffffffff021916908373ffffffffffffffffffffffffffffffffffffffff160217905550600660009054906101000a900473ffffffffffffffffffffffffffffffffffffffff1673ffffffffffffffffffffffffffffffffffffffff16600073ffffffffffffffffffffffffffffffffffffffff167f8be0079c531659141344cd1fd0a4f28419497f9722a3daafe3b4186f6b6457e060405160405180910390a3670de0b6b3a76400006001026008819055506005600960006101000a81548160ff021916908360ff160217905550610e10600a81905550600073ffffffffffffffffffffffffffffffffffffffff168173ffffffffffffffffffffffffffffffffffffffff16141562000182576200017c620001a4640100000000026401000000009004565b6200019d565b6200019c8162000271640100000000026401000000009004565b5b506200032b565b6200026f73c89bd4e1632d3a43cb03aaad5262cbe4038bc57173ffffffffffffffffffffffffffffffffffffffff166338cc48316040518163ffffffff167c010000000000000000000000000000000000000000000000000000000002815260040160206040518083038186803b1580156200021f57600080fd5b505afa15801562000234573d6000803e3d6000fd5b505050506040513d601f19601f820116820180604052506200025a9190810190620002cb565b62000271640100000000026401000000009004565b565b80600260006101000a81548173ffffffffffffffffffffffffffffffffffffffff021916908373ffffffffffffffffffffffffffffffffffffffff16021790555050565b6000620002c3825162000317565b905092915050565b600060208284031215620002de57600080fd5b6000620002ee84828501620002b5565b91505092915050565b600073ffffffffffffffffffffffffffffffffffffffff82169050919050565b60006200032482620002f7565b9050919050565b615df8806200033b6000396000f3fe60806040526004361061018a576000357c0100000000000000000000000000000000000000000000000000000000900463ffffffff16806281ad821461018f5780630c02e130146101ba5780630d668087146101e5578063165d35e1146102105780633edb1fc01461023b578063405499bd14610264578063439c27d81461028d57806346d5cfa9146102b657806354b7faae146102df578063660bfc0914610308578063694b8aa114610331578063782822b91461036e5780637bdcc990146103975780637ed0c5da146103c05780637f0dddce146103e957806382ed1972146104125780638da5cb5b1461044f5780638e41881e1461047a5780638f32d59b146104be57806398fec6b5146104e9578063a4c0ed3614610512578063ae04d45d1461053b578063c2939d9714610564578063cd5c1ea51461058f578063e115e6ae146105cc578063e45a082a146105f5578063ec65d0f814610638578063ee31fbc814610661578063f04285e11461067d578063f2fde38b146106a6578063f98bf2ff146106cf575b600080fd5b34801561019b57600080fd5b506101a46106fa565b6040516101b19190615b8a565b60405180910390f35b3480156101c657600080fd5b506101cf61070d565b6040516101dc9190615b6f565b60405180910390f35b3480156101f157600080fd5b506101fa610713565b6040516102079190615b6f565b60405180910390f35b34801561021c57600080fd5b50610225610719565b60405161023291906156d0565b60405180910390f35b34801561024757600080fd5b50610262600480360361025d9190810190614d04565b610728565b005b34801561027057600080fd5b5061028b60048036036102869190810190614d2d565b610841565b005b34801561029957600080fd5b506102b460048036036102af9190810190614ef2565b6109c8565b005b3480156102c257600080fd5b506102dd60048036036102d89190810190614d2d565b610a1b565b005b3480156102eb57600080fd5b5061030660048036036103019190810190614c38565b610b33565b005b34801561031457600080fd5b5061032f600480360361032a9190810190614d04565b610da7565b005b34801561033d57600080fd5b5061035860048036036103539190810190614d04565b61109b565b6040516103659190615870565b60405180910390f35b34801561037a57600080fd5b5061039560048036036103909190810190614d2d565b6110b3565b005b3480156103a357600080fd5b506103be60048036036103b99190810190614ef2565b6111cb565b005b3480156103cc57600080fd5b506103e760048036036103e29190810190614d04565b61127f565b005b3480156103f557600080fd5b50610410600480360361040b9190810190614dc1565b6113cc565b005b34801561041e57600080fd5b5061043960048036036104349190810190614bd3565b611670565b6040516104469190615b6f565b60405180910390f35b34801561045b57600080fd5b506104646116b9565b60405161047191906156d0565b60405180910390f35b34801561048657600080fd5b506104a1600480360361049c9190810190614d04565b6116e3565b6040516104b59897969594939291906157f2565b60405180910390f35b3480156104ca57600080fd5b506104d3611779565b6040516104e091906157d7565b60405180910390f35b3480156104f557600080fd5b50610510600480360361050b9190810190614d04565b6117d1565b005b34801561051e57600080fd5b5061053960048036036105349190810190614c74565b61199f565b005b34801561054757600080fd5b50610562600480360361055d9190810190614ef2565b611a60565b005b34801561057057600080fd5b50610579611ab3565b6040516105869190615870565b60405180910390f35b34801561059b57600080fd5b506105b660048036036105b19190810190614bd3565b611ab9565b6040516105c39190615b6f565b60405180910390f35b3480156105d857600080fd5b506105f360048036036105ee9190810190614f44565b611ad1565b005b34801561060157600080fd5b5061061c60048036036106179190810190614d04565b611b59565b60405161062f979695949392919061588b565b60405180910390f35b34801561064457600080fd5b5061065f600480360361065a9190810190614e8f565b611e5b565b005b61067b60048036036106769190810190614d69565b611eb6565b005b34801561068957600080fd5b506106a4600480360361069f9190810190614bfc565b6123a8565b005b3480156106b257600080fd5b506106cd60048036036106c89190810190614bd3565b612405565b005b3480156106db57600080fd5b506106e461245a565b6040516106f19190615b6f565b60405180910390f35b600960009054906101000a900460ff1681565b60085481565b600a5481565b60006107236124ad565b905090565b80600f600082815260200190815260200160002060000160009054906101000a900460ff16801561077a5750600f600082815260200190815260200160002060020160009054906101000a900460ff16155b151561078557600080fd5b60085480600c60003373ffffffffffffffffffffffffffffffffffffffff1673ffffffffffffffffffffffffffffffffffffffff168152602001908152602001600020541015151561080c576040517f08c379a000000000000000000000000000000000000000000000000000000000815260040161080390615b4f565b60405180910390fd5b61083b83600063405499bd7c0100000000000000000000000000000000000000000000000000000000026124d7565b50505050565b816005600082815260200190815260200160002060009054906101000a900473ffffffffffffffffffffffffffffffffffffffff1673ffffffffffffffffffffffffffffffffffffffff163373ffffffffffffffffffffffffffffffffffffffff161415156108e5576040517f08c379a00000000000000000000000000000000000000000000000000000000081526004016108dc90615b0f565b60405180910390fd5b6005600082815260200190815260200160002060006101000a81549073ffffffffffffffffffffffffffffffffffffffff0219169055807f7cc135e0cebb02c3480ae5d74d377283180a2601f8f644edf7987b009316c63a60405160405180910390a260006010600085815260200190815260200160002054905082600f600083815260200190815260200160002060040160006101000a81548160ff02191690831515021790555082156109c257807f435c29fe1c8703271ec01d16f06e0ba8ebc0f6d9ee73f8eced34a861f664564f60405160405180910390a25b50505050565b6109d0611779565b1515610a11576040517f08c379a0000000000000000000000000000000000000000000000000000000008152600401610a0890615acf565b60405180910390fd5b8060088190555050565b816005600082815260200190815260200160002060009054906101000a900473ffffffffffffffffffffffffffffffffffffffff1673ffffffffffffffffffffffffffffffffffffffff163373ffffffffffffffffffffffffffffffffffffffff16141515610abf576040517f08c379a0000000000000000000000000000000000000000000000000000000008152600401610ab690615b0f565b60405180910390fd5b6005600082815260200190815260200160002060006101000a81549073ffffffffffffffffffffffffffffffffffffffff0219169055807f7cc135e0cebb02c3480ae5d74d377283180a2601f8f644edf7987b009316c63a60405160405180910390a2610b2e83600184612c46565b505050565b8080600c60003373ffffffffffffffffffffffffffffffffffffffff1673ffffffffffffffffffffffffffffffffffffffff1681526020019081526020016000205410151515610bb8576040517f08c379a0000000000000000000000000000000000000000000000000000000008152600401610baf90615b4f565b60405180910390fd5b6000610bc26124ad565b90508073ffffffffffffffffffffffffffffffffffffffff1663a9059cbb858373ffffffffffffffffffffffffffffffffffffffff166370a08231306040518263ffffffff167c0100000000000000000000000000000000000000000000000000000000028152600401610c3691906156d0565b602060405180830381600087803b158015610c5057600080fd5b505af1158015610c64573d6000803e3d6000fd5b505050506040513d601f19601f82011682018060405250610c889190810190614f1b565b6040518363ffffffff167c0100000000000000000000000000000000000000000000000000000000028152600401610cc19291906156eb565b602060405180830381600087803b158015610cdb57600080fd5b505af1158015610cef573d6000803e3d6000fd5b505050506040513d601f19601f82011682018060405250610d139190810190614cdb565b1515610d54576040517f08c379a0000000000000000000000000000000000000000000000000000000008152600401610d4b90615a8f565b60405180910390fd5b82600c60003373ffffffffffffffffffffffffffffffffffffffff1673ffffffffffffffffffffffffffffffffffffffff1681526020019081526020016000206000828254039250508190555050505050565b60085480600c60003373ffffffffffffffffffffffffffffffffffffffff1673ffffffffffffffffffffffffffffffffffffffff1681526020019081526020016000205410151515610e2e576040517f08c379a0000000000000000000000000000000000000000000000000000000008152600401610e2590615b4f565b60405180910390fd5b600e600083815260200190815260200160002060010160000160009054906101000a900473ffffffffffffffffffffffffffffffffffffffff1673ffffffffffffffffffffffffffffffffffffffff163373ffffffffffffffffffffffffffffffffffffffff161480610f055750600e600083815260200190815260200160002060030160000160009054906101000a900473ffffffffffffffffffffffffffffffffffffffff1673ffffffffffffffffffffffffffffffffffffffff163373ffffffffffffffffffffffffffffffffffffffff16145b1515610f1057600080fd5b6000600f600084815260200190815260200160002060030154111515610f3557600080fd5b600f600083815260200190815260200160002060000160019054906101000a900460ff161580610f80575062015180600f600084815260200190815260200160002060010154420310155b1515610fc1576040517f08c379a0000000000000000000000000000000000000000000000000000000008152600401610fb8906159ef565b60405180910390fd5b6001600f600084815260200190815260200160002060000160026101000a81548160ff0219169083151502179055506000600f600084815260200190815260200160002060000160016101000a81548160ff02191690831515021790555042600f600084815260200190815260200160002060010181905550817fc6bd23896495231c0b35505cd56d6ce75442a8757312378285344a2409ff977a60405160405180910390a261109682600063782822b97c0100000000000000000000000000000000000000000000000000000000026124d7565b505050565b60106020528060005260406000206000915090505481565b816005600082815260200190815260200160002060009054906101000a900473ffffffffffffffffffffffffffffffffffffffff1673ffffffffffffffffffffffffffffffffffffffff163373ffffffffffffffffffffffffffffffffffffffff16141515611157576040517f08c379a000000000000000000000000000000000000000000000000000000000815260040161114e90615b0f565b60405180910390fd5b6005600082815260200190815260200160002060006101000a81549073ffffffffffffffffffffffffffffffffffffffff0219169055807f7cc135e0cebb02c3480ae5d74d377283180a2601f8f644edf7987b009316c63a60405160405180910390a26111c683600084612c46565b505050565b6111d3611779565b1515611214576040517f08c379a000000000000000000000000000000000000000000000000000000000815260040161120b90615acf565b60405180910390fd5b600b54811115151561122557600080fd5b3373ffffffffffffffffffffffffffffffffffffffff166108fc829081150290604051600060405180830381858888f1935050505015801561126b573d6000803e3d6000fd5b5080600b6000828254039250508190555050565b80600f600082815260200190815260200160002060000160019054906101000a900460ff1615156112af57600080fd5b600f600083815260200190815260200160002060000160029054906101000a900460ff1615806112f95750600a54600f600084815260200190815260200160002060010154420310155b151561133a576040517f08c379a0000000000000000000000000000000000000000000000000000000008152600401611331906159af565b60405180910390fd5b6001600f600084815260200190815260200160002060000160016101000a81548160ff0219169083151502179055506000600f600084815260200190815260200160002060000160026101000a81548160ff0219169083151502179055506113c78260016346d5cfa97c0100000000000000000000000000000000000000000000000000000000026124d7565b505050565b600f60008a815260200190815260200160002060000160009054906101000a900460ff16151515611432576040517f08c379a00000000000000000000000000000000000000000000000000000000081526004016114299061598f565b60405180910390fd5b6001600f60008b815260200190815260200160002060000160006101000a81548160ff02191690831515021790555088600e60008b81526020019081526020016000206000018190555085600e60008b81526020019081526020016000206007018190555081600e60008b815260200190815260200160002060050160006101000a81548161ffff021916908361ffff16021790555080600e60008b815260200190815260200160002060050160026101000a81548160ff021916908360ff16021790555033600e60008b815260200190815260200160002060030160000160006101000a81548173ffffffffffffffffffffffffffffffffffffffff021916908373ffffffffffffffffffffffffffffffffffffffff1602179055508787600e60008c815260200190815260200160002060030160010191906115779291906147c5565b5084600e60008b815260200190815260200160002060060160000160006101000a81548167ffffffffffffffff021916908367ffffffffffffffff16021790555083600e60008b815260200190815260200160002060060160000160086101000a81548167ffffffffffffffff021916908367ffffffffffffffff16021790555082600e60008b815260200190815260200160002060060160000160106101000a81548167ffffffffffffffff021916908367ffffffffffffffff160217905550887f72dbb4020c53749dc8545b23b311eeb1dff0b7c1104f9c22edf39a3c696ad83860405160405180910390a2505050505050505050565b6000600c60008373ffffffffffffffffffffffffffffffffffffffff1673ffffffffffffffffffffffffffffffffffffffff168152602001908152602001600020549050919050565b6000600660009054906101000a900473ffffffffffffffffffffffffffffffffffffffff16905090565b600f6020528060005260406000206000915090508060000160009054906101000a900460ff16908060000160019054906101000a900460ff16908060000160029054906101000a900460ff16908060010154908060020160009054906101000a900460ff16908060030154908060040160009054906101000a900460ff16908060040160019054906101000a900460ff16905088565b6000600660009054906101000a900473ffffffffffffffffffffffffffffffffffffffff1673ffffffffffffffffffffffffffffffffffffffff163373ffffffffffffffffffffffffffffffffffffffff1614905090565b803373ffffffffffffffffffffffffffffffffffffffff16600e600083815260200190815260200160002060030160000160009054906101000a900473ffffffffffffffffffffffffffffffffffffffff1673ffffffffffffffffffffffffffffffffffffffff1614151561184557600080fd5b6000600f60008481526020019081526020016000206003015411151561186a57600080fd5b600f600083815260200190815260200160002060000160029054906101000a900460ff1615806118b45750600a54600f600084815260200190815260200160002060010154420310155b15156118f5576040517f08c379a00000000000000000000000000000000000000000000000000000000081526004016118ec90615a6f565b60405180910390fd5b6001600f600084815260200190815260200160002060000160016101000a81548160ff0219169083151502179055506000600f600084815260200190815260200160002060000160026101000a81548160ff02191690831515021790555042600f600084815260200190815260200160002060010181905550817f2d3d39d20a7bf3710074bc037dc1148f17840c276f02aef853fb94973fea3f5c60405160405180910390a25050565b6119a7610719565b73ffffffffffffffffffffffffffffffffffffffff163373ffffffffffffffffffffffffffffffffffffffff16141515611a16576040517f08c379a0000000000000000000000000000000000000000000000000000000008152600401611a0d90615b2f565b60405180910390fd5b7f9ee0420f7d71566f105213c2226110f6c0ea1db21ab256f42439e81b20902bc3838383604051611a4993929190615799565b60405180910390a1611a5b8383612e4c565b505050565b611a68611779565b1515611aa9576040517f08c379a0000000000000000000000000000000000000000000000000000000008152600401611aa090615acf565b60405180910390fd5b80600a8190555050565b60075481565b600c6020528060005260406000206000915090505481565b611ad9611779565b1515611b1a576040517f08c379a0000000000000000000000000000000000000000000000000000000008152600401611b1190615acf565b60405180910390fd5b8060ff166000108015611b30575060648160ff16105b1515611b3b57600080fd5b80600960006101000a81548160ff021916908360ff16021790555050565b600e602052806000526040600020600091509050806000015490806001016040805190810160405290816000820160009054906101000a900473ffffffffffffffffffffffffffffffffffffffff1673ffffffffffffffffffffffffffffffffffffffff1673ffffffffffffffffffffffffffffffffffffffff168152602001600182018054600181600116156101000203166002900480601f016020809104026020016040519081016040528092919081815260200182805460018160011615610100020316600290048015611c715780601f10611c4657610100808354040283529160200191611c71565b820191906000526020600020905b815481529060010190602001808311611c5457829003601f168201915b50505050508152505090806003016040805190810160405290816000820160009054906101000a900473ffffffffffffffffffffffffffffffffffffffff1673ffffffffffffffffffffffffffffffffffffffff1673ffffffffffffffffffffffffffffffffffffffff168152602001600182018054600181600116156101000203166002900480601f016020809104026020016040519081016040528092919081815260200182805460018160011615610100020316600290048015611d795780601f10611d4e57610100808354040283529160200191611d79565b820191906000526020600020905b815481529060010190602001808311611d5c57829003601f168201915b505050505081525050908060050160009054906101000a900461ffff16908060050160029054906101000a900460ff169080600601606060405190810160405290816000820160009054906101000a900467ffffffffffffffff1667ffffffffffffffff1667ffffffffffffffff1681526020016000820160089054906101000a900467ffffffffffffffff1667ffffffffffffffff1667ffffffffffffffff1681526020016000820160109054906101000a900467ffffffffffffffff1667ffffffffffffffff1667ffffffffffffffff1681525050908060070154905087565b611e63611779565b1515611ea4576040517f08c379a0000000000000000000000000000000000000000000000000000000008152600401611e9b90615acf565b60405180910390fd5b611eb084848484612f5c565b50505050565b82600f600082815260200190815260200160002060000160009054906101000a900460ff168015611f085750600f600082815260200190815260200160002060020160009054906101000a900460ff16155b1515611f1357600080fd5b611f1b614845565b600e600086815260200190815260200160002060e0604051908101604052908160008201548152602001600182016040805190810160405290816000820160009054906101000a900473ffffffffffffffffffffffffffffffffffffffff1673ffffffffffffffffffffffffffffffffffffffff1673ffffffffffffffffffffffffffffffffffffffff168152602001600182018054600181600116156101000203166002900480601f0160208091040260200160405190810160405280929190818152602001828054600181600116156101000203166002900480156120435780601f1061201857610100808354040283529160200191612043565b820191906000526020600020905b81548152906001019060200180831161202657829003601f168201915b5050505050815250508152602001600382016040805190810160405290816000820160009054906101000a900473ffffffffffffffffffffffffffffffffffffffff1673ffffffffffffffffffffffffffffffffffffffff1673ffffffffffffffffffffffffffffffffffffffff168152602001600182018054600181600116156101000203166002900480601f01602080910402602001604051908101604052809291908181526020018280546001816001161561010002031660029004801561214f5780601f106121245761010080835404028352916020019161214f565b820191906000526020600020905b81548152906001019060200180831161213257829003601f168201915b50505050508152505081526020016005820160009054906101000a900461ffff1661ffff1661ffff1681526020016005820160029054906101000a900460ff1660ff1660ff16815260200160068201606060405190810160405290816000820160009054906101000a900467ffffffffffffffff1667ffffffffffffffff1667ffffffffffffffff1681526020016000820160089054906101000a900467ffffffffffffffff1667ffffffffffffffff1667ffffffffffffffff1681526020016000820160109054906101000a900467ffffffffffffffff1667ffffffffffffffff1667ffffffffffffffff168152505081526020016007820154815250509050600073ffffffffffffffffffffffffffffffffffffffff1681602001516000015173ffffffffffffffffffffffffffffffffffffffff161480156122975750348160c00151145b15156122d8576040517f08c379a00000000000000000000000000000000000000000000000000000000081526004016122cf90615aef565b60405180910390fd5b33600e600087815260200190815260200160002060010160000160006101000a81548173ffffffffffffffffffffffffffffffffffffffff021916908373ffffffffffffffffffffffffffffffffffffffff1602179055508383600e600088815260200190815260200160002060010160010191906123589291906147c5565b5034600f600087815260200190815260200160002060030181905550847f80668746239215e381abf109af8d54f56a18c004d53bc34bb80e0a4da478c6c160405160405180910390a25050505050565b6123b0611779565b15156123f1576040517f08c379a00000000000000000000000000000000000000000000000000000000081526004016123e890615acf565b60405180910390fd5b6123fa8261308b565b806007819055505050565b61240d611779565b151561244e576040517f08c379a000000000000000000000000000000000000000000000000000000000815260040161244590615acf565b60405180910390fd5b612457816130cf565b50565b6000612464611779565b15156124a5576040517f08c379a000000000000000000000000000000000000000000000000000000000815260040161249c90615acf565b60405180910390fd5b600b54905090565b6000600260009054906101000a900473ffffffffffffffffffffffffffffffffffffffff16905090565b60006346d5cfa97c0100000000000000000000000000000000000000000000000000000000027bffffffffffffffffffffffffffffffffffffffffffffffffffffffff1916827bffffffffffffffffffffffffffffffffffffffffffffffffffffffff191614806125a8575063782822b97c0100000000000000000000000000000000000000000000000000000000027bffffffffffffffffffffffffffffffffffffffffffffffffffffffff1916827bffffffffffffffffffffffffffffffffffffffffffffffffffffffff1916145b80612613575063405499bd7c0100000000000000000000000000000000000000000000000000000000027bffffffffffffffffffffffffffffffffffffffffffffffffffffffff1916827bffffffffffffffffffffffffffffffffffffffffffffffffffffffff1916145b1515612654576040517f08c379a000000000000000000000000000000000000000000000000000000000815260040161264b90615a0f565b60405180910390fd5b61265c614845565b600e600086815260200190815260200160002060e0604051908101604052908160008201548152602001600182016040805190810160405290816000820160009054906101000a900473ffffffffffffffffffffffffffffffffffffffff1673ffffffffffffffffffffffffffffffffffffffff1673ffffffffffffffffffffffffffffffffffffffff168152602001600182018054600181600116156101000203166002900480601f0160208091040260200160405190810160405280929190818152602001828054600181600116156101000203166002900480156127845780601f1061275957610100808354040283529160200191612784565b820191906000526020600020905b81548152906001019060200180831161276757829003601f168201915b5050505050815250508152602001600382016040805190810160405290816000820160009054906101000a900473ffffffffffffffffffffffffffffffffffffffff1673ffffffffffffffffffffffffffffffffffffffff1673ffffffffffffffffffffffffffffffffffffffff168152602001600182018054600181600116156101000203166002900480601f0160208091040260200160405190810160405280929190818152602001828054600181600116156101000203166002900480156128905780601f1061286557610100808354040283529160200191612890565b820191906000526020600020905b81548152906001019060200180831161287357829003601f168201915b50505050508152505081526020016005820160009054906101000a900461ffff1661ffff1661ffff1681526020016005820160029054906101000a900460ff1660ff1660ff16815260200160068201606060405190810160405290816000820160009054906101000a900467ffffffffffffffff1667ffffffffffffffff1667ffffffffffffffff1681526020016000820160089054906101000a900467ffffffffffffffff1667ffffffffffffffff1667ffffffffffffffff1681526020016000820160109054906101000a900467ffffffffffffffff1667ffffffffffffffff1667ffffffffffffffff1681525050815260200160078201548152505090506129996148a0565b8160a0015190506129a86148e0565b6129b56007543087613201565b90508515612a1457612a0f6040805190810160405280600781526020017f757365725f696400000000000000000000000000000000000000000000000000815250846020015160200151836132329092919063ffffffff16565b612a67565b612a666040805190810160405280600781526020017f757365725f696400000000000000000000000000000000000000000000000000815250846040015160200151836132329092919063ffffffff16565b5b612ab96040805190810160405280600581526020017f6170706964000000000000000000000000000000000000000000000000000000815250846060015161ffff16836132659092919063ffffffff16565b612b0a6040805190810160405280600781526020017f636f6e7465787400000000000000000000000000000000000000000000000000815250846080015160ff16836132659092919063ffffffff16565b612b626040805190810160405280600c81526020017f6974656d2e617373657469640000000000000000000000000000000000000000815250836000015167ffffffffffffffff16836132659092919063ffffffff16565b612bba6040805190810160405280600c81526020017f6974656d2e636c61737369640000000000000000000000000000000000000000815250836020015167ffffffffffffffff16836132659092919063ffffffff16565b612c126040805190810160405280600f81526020017f6974656d2e696e7374616e636569640000000000000000000000000000000000815250836040015167ffffffffffffffff16836132659092919063ffffffff16565b612c1e81600854613298565b9350826000015160106000868152602001908152602001600020819055505050509392505050565b6000601060008581526020019081526020016000205490508115612ddb57818015612c6f575082155b600f600083815260200190815260200160002060040160006101000a81548160ff021916908315150217905550818015612ca65750825b600f600083815260200190815260200160002060040160016101000a81548160ff0219169083151502179055508215612d4a57807f0bb9a31f467665782e2053cf82e308ec4d7c22d5b50965cae27f938b8a3e703660405160405180910390a2600e600082815260200190815260200160002060070154600f600083815260200190815260200160002060030154101515612d4557612d44816132cf565b5b612dd6565b821515612dd557807f435c29fe1c8703271ec01d16f06e0ba8ebc0f6d9ee73f8eced34a861f664564f60405160405180910390a26000600f60008381526020019081526020016000206003015410158015612dc55750600f600082815260200190815260200160002060000160029054906101000a900460ff165b15612dd457612dd381613813565b5b5b5b612e46565b8215612e15576000600f600083815260200190815260200160002060040160016101000a81548160ff021916908315150217905550612e45565b6000600f600083815260200190815260200160002060040160006101000a81548160ff0219169083151502179055505b5b50505050565b612e54610719565b73ffffffffffffffffffffffffffffffffffffffff163373ffffffffffffffffffffffffffffffffffffffff16141515612ec3576040517f08c379a0000000000000000000000000000000000000000000000000000000008152600401612eba90615b2f565b60405180910390fd5b612f1581600c60008573ffffffffffffffffffffffffffffffffffffffff1673ffffffffffffffffffffffffffffffffffffffff16815260200190815260200160002054613e3690919063ffffffff16565b600c60008473ffffffffffffffffffffffffffffffffffffffff1673ffffffffffffffffffffffffffffffffffffffff168152602001908152602001600020819055505050565b60006005600086815260200190815260200160002060009054906101000a900473ffffffffffffffffffffffffffffffffffffffff1690506005600086815260200190815260200160002060006101000a81549073ffffffffffffffffffffffffffffffffffffffff0219169055847fe1fe3afa0f7f761ff0a8b89086790efd5140d2907ebd5b7ff6bfcb5e075fd4c560405160405180910390a28073ffffffffffffffffffffffffffffffffffffffff16636ee4d553868686866040518563ffffffff167c0100000000000000000000000000000000000000000000000000000000028152600401613052949392919061590a565b600060405180830381600087803b15801561306c57600080fd5b505af1158015613080573d6000803e3d6000fd5b505050505050505050565b80600360006101000a81548173ffffffffffffffffffffffffffffffffffffffff021916908373ffffffffffffffffffffffffffffffffffffffff16021790555050565b600073ffffffffffffffffffffffffffffffffffffffff168173ffffffffffffffffffffffffffffffffffffffff1614151515613141576040517f08c379a00000000000000000000000000000000000000000000000000000000081526004016131389061594f565b60405180910390fd5b8073ffffffffffffffffffffffffffffffffffffffff16600660009054906101000a900473ffffffffffffffffffffffffffffffffffffffff1673ffffffffffffffffffffffffffffffffffffffff167f8be0079c531659141344cd1fd0a4f28419497f9722a3daafe3b4186f6b6457e060405160405180910390a380600660006101000a81548173ffffffffffffffffffffffffffffffffffffffff021916908373ffffffffffffffffffffffffffffffffffffffff16021790555050565b6132096148e0565b6132116148e0565b61322885858584613e8d909392919063ffffffff16565b9150509392505050565b613249828460800151613f3d90919063ffffffff16565b613260818460800151613f3d90919063ffffffff16565b505050565b61327c828460800151613f3d90919063ffffffff16565b613293818460800151613f6290919063ffffffff16565b505050565b60006132c7600360009054906101000a900473ffffffffffffffffffffffffffffffffffffffff168484613fb0565b905092915050565b6132d7614845565b600e600083815260200190815260200160002060e0604051908101604052908160008201548152602001600182016040805190810160405290816000820160009054906101000a900473ffffffffffffffffffffffffffffffffffffffff1673ffffffffffffffffffffffffffffffffffffffff1673ffffffffffffffffffffffffffffffffffffffff168152602001600182018054600181600116156101000203166002900480601f0160208091040260200160405190810160405280929190818152602001828054600181600116156101000203166002900480156133ff5780601f106133d4576101008083540402835291602001916133ff565b820191906000526020600020905b8154815290600101906020018083116133e257829003601f168201915b5050505050815250508152602001600382016040805190810160405290816000820160009054906101000a900473ffffffffffffffffffffffffffffffffffffffff1673ffffffffffffffffffffffffffffffffffffffff1673ffffffffffffffffffffffffffffffffffffffff168152602001600182018054600181600116156101000203166002900480601f01602080910402602001604051908101604052809291908181526020018280546001816001161561010002031660029004801561350b5780601f106134e05761010080835404028352916020019161350b565b820191906000526020600020905b8154815290600101906020018083116134ee57829003601f168201915b50505050508152505081526020016005820160009054906101000a900461ffff1661ffff1661ffff1681526020016005820160029054906101000a900460ff1660ff1660ff16815260200160068201606060405190810160405290816000820160009054906101000a900467ffffffffffffffff1667ffffffffffffffff1667ffffffffffffffff1681526020016000820160089054906101000a900467ffffffffffffffff1667ffffffffffffffff1667ffffffffffffffff1681526020016000820160109054906101000a900467ffffffffffffffff1667ffffffffffffffff1667ffffffffffffffff168152505081526020016007820154815250509050600061361b8260c001516141e8565b90506000818360c0015103905082604001516000015173ffffffffffffffffffffffffffffffffffffffff166108fc829081150290604051600060405180830381858888f19350505050158015613676573d6000803e3d6000fd5b506001600f600086815260200190815260200160002060020160006101000a81548160ff0219169083151502179055506000600f60008681526020019081526020016000206003018190555081600b600082825401925050819055506001600d6000600e600088815260200190815260200160002060010160000160009054906101000a900473ffffffffffffffffffffffffffffffffffffffff1673ffffffffffffffffffffffffffffffffffffffff1673ffffffffffffffffffffffffffffffffffffffff168152602001908152602001600020600082825401925050819055506001600d6000600e600088815260200190815260200160002060030160000160009054906101000a900473ffffffffffffffffffffffffffffffffffffffff1673ffffffffffffffffffffffffffffffffffffffff1673ffffffffffffffffffffffffffffffffffffffff16815260200190815260200160002060008282540192505081905550837ff0910a3c2252167bb7f922a26847b089b35dac2db0e61737af690f259c4ed15f60405160405180910390a250505050565b80600f600082815260200190815260200160002060000160009054906101000a900460ff1680156138655750600f600082815260200190815260200160002060020160009054906101000a900460ff16155b151561387057600080fd5b600f600083815260200190815260200160002060040160009054906101000a900460ff1680156138ed5750600f600083815260200190815260200160002060000160029054906101000a900460ff1680156138ec5750600f600083815260200190815260200160002060000160019054906101000a900460ff16155b5b806139125750600a54600f600084815260200190815260200160002060010154420310155b1515613953576040517f08c379a000000000000000000000000000000000000000000000000000000000815260040161394a90615a2f565b60405180910390fd5b61395b61494e565b600f600084815260200190815260200160002061010060405190810160405290816000820160009054906101000a900460ff161515151581526020016000820160019054906101000a900460ff161515151581526020016000820160029054906101000a900460ff16151515158152602001600182015481526020016002820160009054906101000a900460ff16151515158152602001600382015481526020016004820160009054906101000a900460ff161515151581526020016004820160019054906101000a900460ff1615151515815250509050613a3b614845565b600e600085815260200190815260200160002060e0604051908101604052908160008201548152602001600182016040805190810160405290816000820160009054906101000a900473ffffffffffffffffffffffffffffffffffffffff1673ffffffffffffffffffffffffffffffffffffffff1673ffffffffffffffffffffffffffffffffffffffff168152602001600182018054600181600116156101000203166002900480601f016020809104026020016040519081016040528092919081815260200182805460018160011615610100020316600290048015613b635780601f10613b3857610100808354040283529160200191613b63565b820191906000526020600020905b815481529060010190602001808311613b4657829003601f168201915b5050505050815250508152602001600382016040805190810160405290816000820160009054906101000a900473ffffffffffffffffffffffffffffffffffffffff1673ffffffffffffffffffffffffffffffffffffffff1673ffffffffffffffffffffffffffffffffffffffff168152602001600182018054600181600116156101000203166002900480601f016020809104026020016040519081016040528092919081815260200182805460018160011615610100020316600290048015613c6f5780601f10613c4457610100808354040283529160200191613c6f565b820191906000526020600020905b815481529060010190602001808311613c5257829003601f168201915b50505050508152505081526020016005820160009054906101000a900461ffff1661ffff1661ffff1681526020016005820160029054906101000a900460ff1660ff1660ff16815260200160068201606060405190810160405290816000820160009054906101000a900467ffffffffffffffff1667ffffffffffffffff1667ffffffffffffffff1681526020016000820160089054906101000a900467ffffffffffffffff1667ffffffffffffffff1667ffffffffffffffff1681526020016000820160109054906101000a900467ffffffffffffffff1667ffffffffffffffff1667ffffffffffffffff1681525050815260200160078201548152505090506000613d7f8360a001516141e8565b905081602001516000015173ffffffffffffffffffffffffffffffffffffffff166108fc828560a00151039081150290604051600060405180830381858888f19350505050158015613dd5573d6000803e3d6000fd5b5080600b600082825401925050819055506000600f600087815260200190815260200160002060030181905550847fa6857d37d35d6508f22626b218c2a9f6c7a5d84e2e22b1e5240ff559fca094bd60405160405180910390a25050505050565b6000808284019050838110151515613e83576040517f08c379a0000000000000000000000000000000000000000000000000000000008152600401613e7a9061596f565b60405180910390fd5b8091505092915050565b613e956148e0565b613ea58560800151610100614229565b508385600001818152505082856020019073ffffffffffffffffffffffffffffffffffffffff16908173ffffffffffffffffffffffffffffffffffffffff16815250508185604001907bffffffffffffffffffffffffffffffffffffffffffffffffffffffff191690817bffffffffffffffffffffffffffffffffffffffffffffffffffffffff191681525050849050949350505050565b613f4a8260038351614283565b613f5d81836143e190919063ffffffff16565b505050565b600081121515613f7d57613f7882600083614283565b613fac565b613fab826001837fffffffffffffffffffffffffffffffffffffffffffffffffffffffffffffffff03614283565b5b5050565b6000308360000151600454604051602001808473ffffffffffffffffffffffffffffffffffffffff1673ffffffffffffffffffffffffffffffffffffffff166c010000000000000000000000000281526014018381526020018281526020019350505050604051602081830303815290604052805190602001209050600454836060018181525050836005600083815260200190815260200160002060006101000a81548173ffffffffffffffffffffffffffffffffffffffff021916908373ffffffffffffffffffffffffffffffffffffffff160217905550807fb5e6e01e79f91267dc17b4e6314d5d4d03593d2ceee0fbb452b750bd70ea5af960405160405180910390a2600260009054906101000a900473ffffffffffffffffffffffffffffffffffffffff1673ffffffffffffffffffffffffffffffffffffffff16634000aea0858461410087614403565b6040518463ffffffff167c010000000000000000000000000000000000000000000000000000000002815260040161413a93929190615799565b602060405180830381600087803b15801561415457600080fd5b505af1158015614168573d6000803e3d6000fd5b505050506040513d601f19601f8201168201806040525061418c9190810190614cdb565b15156141cd576040517f08c379a00000000000000000000000000000000000000000000000000000000081526004016141c4906159cf565b60405180910390fd5b60016004600082825401925050819055508090509392505050565b60006142226064614214600960009054906101000a900460ff1660ff168561450190919063ffffffff16565b61457590919063ffffffff16565b9050919050565b6142316149a0565b600060208381151561423f57fe5b0614151561425c5760208281151561425357fe5b06602003820191505b81836020018181525050604051808452600081528281016020016040525082905092915050565b6017811115156142b5576142af8160058460ff169060020a0260ff1617846145d590919063ffffffff16565b506143dc565b60ff811115156142fc576142df601860058460ff169060020a0217846145d590919063ffffffff16565b506142f6816001856145f59092919063ffffffff16565b506143db565b61ffff8111151561434457614327601960058460ff169060020a0217846145d590919063ffffffff16565b5061433e816002856145f59092919063ffffffff16565b506143da565b63ffffffff8111151561438e57614371601a60058460ff169060020a0217846145d590919063ffffffff16565b50614388816004856145f59092919063ffffffff16565b506143d9565b67ffffffffffffffff811115156143d8576143bf601b60058460ff169060020a0217846145d590919063ffffffff16565b506143d6816008856145f59092919063ffffffff16565b505b5b5b5b5b505050565b6143e96149a0565b6143fb83846000015151848551614617565b905092915050565b6060600360009054906101000a900473ffffffffffffffffffffffffffffffffffffffff1673ffffffffffffffffffffffffffffffffffffffff16634042994690507c0100000000000000000000000000000000000000000000000000000000026000808460000151856020015186604001518760600151600189608001516000015160405160240161449d989796959493929190615714565b604051602081830303815290604052907bffffffffffffffffffffffffffffffffffffffffffffffffffffffff19166020820180517bffffffffffffffffffffffffffffffffffffffffffffffffffffffff83818316178352505050509050919050565b600080831415614514576000905061456f565b6000828402905082848281151561452757fe5b0414151561456a576040517f08c379a000000000000000000000000000000000000000000000000000000000815260040161456190615aaf565b60405180910390fd5b809150505b92915050565b600080821115156145bb576040517f08c379a00000000000000000000000000000000000000000000000000000000081526004016145b290615a4f565b60405180910390fd5b600082848115156145c857fe5b0490508091505092915050565b6145dd6149a0565b6145ed83846000015151846146d4565b905092915050565b6145fd6149a0565b61460e848560000151518585614724565b90509392505050565b61461f6149a0565b8251821115151561462f57600080fd5b8460200151828501111561465a576146598560026146538860200151888701614785565b026147a1565b5b6000808651805187602083010193508088870111156146795787860182525b60208701925050505b6020841015156146a75780518252602082019150602081019050602084039350614682565b60006001856020036101000a03905080198251168184511681811785525050879350505050949350505050565b6146dc6149a0565b8360200151831015156146fb576146fa8460028660200151026147a1565b5b8351805160208583010184815381861415614717576001820183525b5050508390509392505050565b61472c6149a0565b8460200151848301111561474a57614749856002868501026147a1565b5b60006001836101000a03905085518386820101858319825116178152815185880111156147775784870182525b505085915050949350505050565b6000818311156147975782905061479b565b8190505b92915050565b6060826000015190506147b48383614229565b506147bf83826143e1565b50505050565b828054600181600116156101000203166002900490600052602060002090601f016020900481019282601f1061480657803560ff1916838001178555614834565b82800160010185558215614834579182015b82811115614833578235825591602001919060010190614818565b5b50905061484191906149ba565b5090565b61016060405190810160405280600080191681526020016148646149df565b81526020016148716149df565b8152602001600061ffff168152602001600060ff168152602001614893614a0f565b8152602001600081525090565b606060405190810160405280600067ffffffffffffffff168152602001600067ffffffffffffffff168152602001600067ffffffffffffffff1681525090565b60c06040519081016040528060008019168152602001600073ffffffffffffffffffffffffffffffffffffffff16815260200160007bffffffffffffffffffffffffffffffffffffffffffffffffffffffff1916815260200160008152602001614948614a4f565b81525090565b6101006040519081016040528060001515815260200160001515815260200160001515815260200160008152602001600015158152602001600081526020016000151581526020016000151581525090565b604080519081016040528060608152602001600081525090565b6149dc91905b808211156149d85760008160009055506001016149c0565b5090565b90565b6040805190810160405280600073ffffffffffffffffffffffffffffffffffffffff168152602001606081525090565b606060405190810160405280600067ffffffffffffffff168152602001600067ffffffffffffffff168152602001600067ffffffffffffffff1681525090565b604080519081016040528060608152602001600081525090565b6000614a758235615cde565b905092915050565b6000614a898235615cf0565b905092915050565b6000614a9d8251615cf0565b905092915050565b6000614ab18235615cfc565b905092915050565b6000614ac58235615d06565b905092915050565b600082601f8301121515614ae057600080fd5b8135614af3614aee82615bd2565b615ba5565b91508082526020830160208301858383011115614b0f57600080fd5b614b1a838284615d6b565b50505092915050565b60008083601f8401121515614b3757600080fd5b8235905067ffffffffffffffff811115614b5057600080fd5b602083019150836001820283011115614b6857600080fd5b9250929050565b6000614b7b8235615d32565b905092915050565b6000614b8f8235615d40565b905092915050565b6000614ba38251615d40565b905092915050565b6000614bb78235615d4a565b905092915050565b6000614bcb8235615d5e565b905092915050565b600060208284031215614be557600080fd5b6000614bf384828501614a69565b91505092915050565b60008060408385031215614c0f57600080fd5b6000614c1d85828601614a69565b9250506020614c2e85828601614aa5565b9150509250929050565b60008060408385031215614c4b57600080fd5b6000614c5985828601614a69565b9250506020614c6a85828601614b83565b9150509250929050565b600080600060608486031215614c8957600080fd5b6000614c9786828701614a69565b9350506020614ca886828701614b83565b925050604084013567ffffffffffffffff811115614cc557600080fd5b614cd186828701614acd565b9150509250925092565b600060208284031215614ced57600080fd5b6000614cfb84828501614a91565b91505092915050565b600060208284031215614d1657600080fd5b6000614d2484828501614aa5565b91505092915050565b60008060408385031215614d4057600080fd5b6000614d4e85828601614aa5565b9250506020614d5f85828601614a7d565b9150509250929050565b600080600060408486031215614d7e57600080fd5b6000614d8c86828701614aa5565b935050602084013567ffffffffffffffff811115614da957600080fd5b614db586828701614b23565b92509250509250925092565b60008060008060008060008060006101008a8c031215614de057600080fd5b6000614dee8c828d01614aa5565b99505060208a013567ffffffffffffffff811115614e0b57600080fd5b614e178c828d01614b23565b98509850506040614e2a8c828d01614b83565b9650506060614e3b8c828d01614bab565b9550506080614e4c8c828d01614bab565b94505060a0614e5d8c828d01614bab565b93505060c0614e6e8c828d01614b6f565b92505060e0614e7f8c828d01614bbf565b9150509295985092959850929598565b60008060008060808587031215614ea557600080fd5b6000614eb387828801614aa5565b9450506020614ec487828801614b83565b9350506040614ed587828801614ab9565b9250506060614ee687828801614b83565b91505092959194509250565b600060208284031215614f0457600080fd5b6000614f1284828501614b83565b91505092915050565b600060208284031215614f2d57600080fd5b6000614f3b84828501614b97565b91505092915050565b600060208284031215614f5657600080fd5b6000614f6484828501614bbf565b91505092915050565b614f7681615c31565b82525050565b614f8581615c1f565b82525050565b614f9481615c43565b82525050565b614fa381615c4f565b82525050565b614fb281615c59565b82525050565b6000614fc382615c09565b808452614fd7816020860160208601615d7a565b614fe081615dad565b602085010191505092915050565b6000614ff982615bfe565b80845261500d816020860160208601615d7a565b61501681615dad565b602085010191505092915050565b600061502f82615c14565b808452615043816020860160208601615d7a565b61504c81615dad565b602085010191505092915050565b6000602682527f4f776e61626c653a206e6577206f776e657220697320746865207a65726f206160208301527f64647265737300000000000000000000000000000000000000000000000000006040830152606082019050919050565b6000601b82527f536166654d6174683a206164646974696f6e206f766572666c6f7700000000006020830152604082019050919050565b6000602282527f547261646520616c72656164792065786973747320776974682074686973204960208301527f442e0000000000000000000000000000000000000000000000000000000000006040830152606082019050919050565b6000602d82527f526566756e64206c6f636b656420696e2e20547279206166746572206c6f636b60208301527f20706572696f6420656e64732e000000000000000000000000000000000000006040830152606082019050919050565b6000602382527f756e61626c6520746f207472616e73666572416e6443616c6c20746f206f726160208301527f636c6500000000000000000000000000000000000000000000000000000000006040830152606082019050919050565b6000602b82527f53616c65206c6f636b656420696e2e20547279206166746572206c6f636b207060208301527f6572696f6420656e64732e0000000000000000000000000000000000000000006040830152606082019050919050565b6000602482527f57726f6e672066756e6374696f6e207370656369666965642061732073656c6560208301527f63746f72000000000000000000000000000000000000000000000000000000006040830152606082019050919050565b6000604682527f53656c6c657220646f65736e742068617665206974656d206f722073616c652060208301527f6c6f636b656420696e2e20547279206166746572206c6f636b20706572696f6460408301527f20656e64732e00000000000000000000000000000000000000000000000000006060830152608082019050919050565b6000601a82527f536166654d6174683a206469766973696f6e206279207a65726f0000000000006020830152604082019050919050565b6000602782527f526566756e64206c6f636b656420696e2e205761697420666f72206c6f636b2060208301527f746f20656e642e000000000000000000000000000000000000000000000000006040830152606082019050919050565b6000601282527f556e61626c6520746f207472616e7366657200000000000000000000000000006020830152604082019050919050565b6000602182527f536166654d6174683a206d756c7469706c69636174696f6e206f766572666c6f60208301527f77000000000000000000000000000000000000000000000000000000000000006040830152606082019050919050565b6000602082527f4f776e61626c653a2063616c6c6572206973206e6f7420746865206f776e65726020830152604082019050919050565b6000602b82527f427579657220616c726561647920657869737473206f72207061796d656e742060208301527f6469646e74206d617463680000000000000000000000000000000000000000006040830152606082019050919050565b6000602882527f536f75726365206d75737420626520746865206f7261636c65206f662074686560208301527f20726571756573740000000000000000000000000000000000000000000000006040830152606082019050919050565b6000601382527f4d75737420757365204c494e4b20746f6b656e000000000000000000000000006020830152604082019050919050565b6000604782527f416d6f756e7420726571756972656420666f72206f7261636c65207061796d6560208301527f6e742069732067726561746572207468616e20776974686472617761626c652060408301527f62616c616e6365000000000000000000000000000000000000000000000000006060830152608082019050919050565b600060408301600083015161562d6000860182614f6d565b50602083015184820360208601526156458282615024565b9150508091505092915050565b60608201600082015161566860008501826156b2565b50602082015161567b60208501826156b2565b50604082015161568e60408501826156b2565b50505050565b61569d81615c85565b82525050565b6156ac81615cb3565b82525050565b6156bb81615cbd565b82525050565b6156ca81615cd1565b82525050565b60006020820190506156e56000830184614f7c565b92915050565b60006040820190506157006000830185614f7c565b61570d60208301846156a3565b9392505050565b60006101008201905061572a600083018b614f7c565b615737602083018a6156a3565b6157446040830189614f9a565b6157516060830188614f7c565b61575e6080830187614fa9565b61576b60a08301866156a3565b61577860c08301856156a3565b81810360e083015261578a8184614fee565b90509998505050505050505050565b60006060820190506157ae6000830186614f7c565b6157bb60208301856156a3565b81810360408301526157cd8184614fb8565b9050949350505050565b60006020820190506157ec6000830184614f8b565b92915050565b600061010082019050615808600083018b614f8b565b615815602083018a614f8b565b6158226040830189614f8b565b61582f60608301886156a3565b61583c6080830187614f8b565b61584960a08301866156a3565b61585660c0830185614f8b565b61586360e0830184614f8b565b9998505050505050505050565b60006020820190506158856000830184614f9a565b92915050565b6000610120820190506158a1600083018a614f9a565b81810360208301526158b38189615615565b905081810360408301526158c78188615615565b90506158d66060830187615694565b6158e360808301866156c1565b6158f060a0830185615652565b6158fe6101008301846156a3565b98975050505050505050565b600060808201905061591f6000830187614f9a565b61592c60208301866156a3565b6159396040830185614fa9565b61594660608301846156a3565b95945050505050565b600060208201905081810360008301526159688161505a565b9050919050565b60006020820190508181036000830152615988816150b7565b9050919050565b600060208201905081810360008301526159a8816150ee565b9050919050565b600060208201905081810360008301526159c88161514b565b9050919050565b600060208201905081810360008301526159e8816151a8565b9050919050565b60006020820190508181036000830152615a0881615205565b9050919050565b60006020820190508181036000830152615a2881615262565b9050919050565b60006020820190508181036000830152615a48816152bf565b9050919050565b60006020820190508181036000830152615a6881615342565b9050919050565b60006020820190508181036000830152615a8881615379565b9050919050565b60006020820190508181036000830152615aa8816153d6565b9050919050565b60006020820190508181036000830152615ac88161540d565b9050919050565b60006020820190508181036000830152615ae88161546a565b9050919050565b60006020820190508181036000830152615b08816154a1565b9050919050565b60006020820190508181036000830152615b28816154fe565b9050919050565b60006020820190508181036000830152615b488161555b565b9050919050565b60006020820190508181036000830152615b6881615592565b9050919050565b6000602082019050615b8460008301846156a3565b92915050565b6000602082019050615b9f60008301846156c1565b92915050565b6000604051905081810181811067ffffffffffffffff82111715615bc857600080fd5b8060405250919050565b600067ffffffffffffffff821115615be957600080fd5b601f19601f8301169050602081019050919050565b600081519050919050565b600081519050919050565b600081519050919050565b6000615c2a82615c93565b9050919050565b6000615c3c82615c93565b9050919050565b60008115159050919050565b6000819050919050565b60007fffffffff0000000000000000000000000000000000000000000000000000000082169050919050565b600061ffff82169050919050565b600073ffffffffffffffffffffffffffffffffffffffff82169050919050565b6000819050919050565b600067ffffffffffffffff82169050919050565b600060ff82169050919050565b6000615ce982615c93565b9050919050565b60008115159050919050565b6000819050919050565b60007fffffffff0000000000000000000000000000000000000000000000000000000082169050919050565b600061ffff82169050919050565b6000819050919050565b600067ffffffffffffffff82169050919050565b600060ff82169050919050565b82818337600083830152505050565b60005b83811015615d98578082015181840152602081019050615d7d565b83811115615da7576000848401525b50505050565b6000601f19601f830116905091905056fea265627a7a7230582039adff881e3402e873144fc53c26ad870a011bae0e7f94676741f88f1f5d09b66c6578706572696d656e74616cf50037",
  "source": "pragma solidity >=0.5.0;\npragma experimental ABIEncoderV2;\n\nimport \"chainlink/v0.5/contracts/ChainlinkClient.sol\";\nimport \"chainlink/v0.5/contracts/vendor/Ownable.sol\";\n\n/**\n * @title SteamTrader is an example contract which requests data from\n * the Chainlink network about steam inventories and enables trading of items\n * @dev This contract is designed to work on multiple networks, including\n * local test networks\n */\n//using SafeMath for uint; --- imported via the ChainlinkClient but leaving comment as reference\ncontract SteamTrader is ChainlinkClient, Ownable {\n\n  uint256 constant internal LINK = 10**18;\n  uint256 constant private SELECTOR_LENGTH = 4;\n  uint256 constant private EXPECTED_REQUEST_WORDS = 2;\n  uint256 constant private MINIMUM_REQUEST_LENGTH = SELECTOR_LENGTH + (32 * EXPECTED_REQUEST_WORDS);\n\n  // contract terms\n  bytes32 public jobId;\n  uint256 public oraclePayment;\n  uint8 public contractFeePerc;\n  uint256 public lockTime;\n  uint256 private withdrawableEth;\n\n  // trackers for users and trades\n  mapping(address => uint256) public withdrawableLinkTokens;\n  mapping (address => uint) reputation; // TODO: Track reputation via completed trades\n  mapping (bytes32 => Trade) public trade;\n  mapping (bytes32 => TradeStatus) public tradeStatus;\n\n  // request Id -> tradeId. So we know which trade a given oracle request is for\n  mapping (bytes32 => bytes32) public requestTracker;\n  struct Item {\n    uint64 assetid;\n    uint64 classid;\n    uint64 instanceid;\n  }\n  struct Customer {\n    address payable addr;\n    string steamId;\n  }\n  struct TradeStatus {\n    bool init;\n    bool sellTransferInitiated;\n    bool refundInitiated;\n    uint256 lockBlockTimestamp;\n    bool complete;\n    uint256 depositBalance;\n    bool sellerHoldsItem;\n    bool buyerHoldsItem;\n  }\n  struct Trade {\n    bytes32 tradeId;\n    Customer buyer;\n    Customer seller;\n    uint16 appId;\n    uint8 inventoryContext;\n    Item item;\n    uint256 askingPrice;\n  }\n\n  event TradeCreated(bytes32 indexed tradeId);\n  event FundingSecured(bytes32 indexed tradeId);\n  event LinkReceived(address sender, uint amount, bytes data);\n  event SaleLocked(bytes32 indexed tradeId);\n  event SaleCompleted(bytes32 indexed tradeId);\n  event SellerHasItem(bytes32 indexed tradeId);\n  event BuyerHasItem(bytes32 indexed tradeId);\n  event RefundRequested(bytes32 indexed tradeId);\n  event RefundGranted(bytes32 indexed tradeId);\n\n  function createTrade(\n    bytes32 _uuid,\n    string calldata _steamId,\n    uint256 _askingPrice,\n    // item\n    uint64 _assetid,\n    uint64 _classid,\n    uint64 _instanceid,\n    // app\n    uint16 _appId,\n    uint8 _inventoryContext\n  ) external {\n    // check if trade already exists. if so, halt.\n    require (!tradeStatus[_uuid].init, \"Trade already exists with this ID.\");\n\n    tradeStatus[_uuid].init = true;\n    // trade info\n    trade[_uuid].tradeId = _uuid;\n    trade[_uuid].askingPrice = _askingPrice;\n    trade[_uuid].appId = _appId;\n    trade[_uuid].inventoryContext = _inventoryContext;\n    // seller info\n    trade[_uuid].seller.addr = msg.sender;\n    trade[_uuid].seller.steamId = _steamId;\n    // item info\n    trade[_uuid].item.assetid = _assetid;\n    trade[_uuid].item.classid = _classid;\n    trade[_uuid].item.instanceid = _instanceid;\n    emit TradeCreated(_uuid);\n  }\n\n  // run by anybody so the contract displays if seller has the item\n  function requestTradeItemValidation(\n    bytes32 _tradeId\n  ) external inProgressTradeOnly(_tradeId) hasAvailableLINKFunds(oraclePayment)\n  {\n    checkSteamInventory(_tradeId, false, this.fulfillTradeItemValidation.selector);\n  }\n\n  // function for buyer to deposit funds\n  function buyItem(bytes32 _tradeId, string calldata _steamId)\n    external\n    payable\n    inProgressTradeOnly(_tradeId)\n  {\n    Trade memory _t = trade[_tradeId];\n    // require not bought yet and full amount paid (no more, no less)\n    require(_t.buyer.addr == address(0) && _t.askingPrice == msg.value, \"Buyer already exists or payment didnt match\");\n    // update trade with buyer\n    trade[_tradeId].buyer.addr = msg.sender;\n    trade[_tradeId].buyer.steamId = _steamId;\n    tradeStatus[_tradeId].depositBalance = msg.value;\n    emit FundingSecured(_tradeId);\n    //TODO: emit event that funds have arrived. UI can read this and SNS notify the seller\n  }\n\n  // allow seller to declare he's sending item so a refund can't be issued.\n  function startTrade(bytes32 _tradeId) external onlySeller(_tradeId) {\n    require(tradeStatus[_tradeId].depositBalance > 0);\n    require(!tradeStatus[_tradeId].refundInitiated\n      || now - tradeStatus[_tradeId].lockBlockTimestamp >= lockTime, \"Refund locked in. Wait for lock to end.\");\n    tradeStatus[_tradeId].sellTransferInitiated = true;\n    tradeStatus[_tradeId].refundInitiated = false;\n    tradeStatus[_tradeId].lockBlockTimestamp = now;\n    emit SaleLocked(_tradeId);\n  }\n\n  // seller tells contract he has sent item. If item is in buyer inventory, resolve trade.\n  function requestTradeConfirmation(bytes32 _tradeId) external sellTransferIsInitiated(_tradeId) {\n    require(!tradeStatus[_tradeId].refundInitiated\n      || now - tradeStatus[_tradeId].lockBlockTimestamp >= lockTime, \"Refund locked in. Try after lock period ends.\");\n    tradeStatus[_tradeId].sellTransferInitiated = true;\n    tradeStatus[_tradeId].refundInitiated = false;\n\n    checkSteamInventory(_tradeId, true, this.fulfillBuyerCheck.selector);\n  }\n\n  // TODO: allow buyer to call this via link contract. must send required link payment for oracles\n  // For now, deposit first then call\n  function requestEthRefund(\n    bytes32 _tradeId\n  )\n    external hasAvailableLINKFunds(oraclePayment)\n  {\n    require(msg.sender == trade[_tradeId].buyer.addr || msg.sender == trade[_tradeId].seller.addr);\n    require(tradeStatus[_tradeId].depositBalance > 0);\n    require(\n      !tradeStatus[_tradeId].sellTransferInitiated\n      || now - tradeStatus[_tradeId].lockBlockTimestamp >= 1 days, \"Sale locked in. Try after lock period ends.\"\n    );\n    tradeStatus[_tradeId].refundInitiated = true;\n    tradeStatus[_tradeId].sellTransferInitiated = false;\n    tradeStatus[_tradeId].lockBlockTimestamp = now;\n    emit RefundRequested(_tradeId);\n    checkSteamInventory(_tradeId, false, this.fulfillSellerCheck.selector);\n  }\n\n  /**\n   * @notice Returns the address of the LINK token\n   * @dev This is the public implementation for chainlinkTokenAddress, which is\n   * an internal method of the ChainlinkClient contract\n   */\n  function getChainlinkToken() public view returns (address) {\n    return chainlinkTokenAddress();\n  }\n\n  /**\n   * @notice Creates a request to an oracle in the oracleMap\n   * @param _tradeId The tradeId that contains item & customer data\n   * @param _buyer T/F if check is for buyer & pull steam Id / set fulfill function\n   * @param _selector callback function for CL node to fulfill to\n   */\n  function checkSteamInventory(\n    bytes32 _tradeId,\n    bool _buyer,\n    bytes4 _selector\n  )\n    private\n    returns (bytes32 requestId)\n  {\n    require(\n      _selector == this.fulfillBuyerCheck.selector\n      || _selector == this.fulfillSellerCheck.selector\n      || _selector == this.fulfillTradeItemValidation.selector, \"Wrong function specified as selector\"\n    );\n    Trade memory _trade = trade[_tradeId];\n    Item memory _item = _trade.item;\n    Chainlink.Request memory req = buildChainlinkRequest(jobId, address(this), _selector);\n\n    if (_buyer) {\n      req.add(\"user_id\", _trade.buyer.steamId);\n    }\n    else {\n      req.add(\"user_id\", _trade.seller.steamId);\n    }\n    req.addInt(\"appid\", _trade.appId);\n    req.addInt(\"context\", _trade.inventoryContext);\n    req.addInt(\"item.assetid\", _item.assetid);\n    req.addInt(\"item.classid\", _item.classid);\n    req.addInt(\"item.instanceid\", _item.instanceid);\n\n    requestId = sendChainlinkRequest(req, oraclePayment);\n    requestTracker[requestId] = _trade.tradeId;\n  }\n\n  // chainlink fulfills to this that the item is found\n  function fulfillTradeItemValidation(bytes32 _requestId, bool _itemFound)\n    external\n    recordChainlinkFulfillment(_requestId)\n  {\n    bytes32 _tradeId = requestTracker[_requestId];\n    tradeStatus[_tradeId].sellerHoldsItem = _itemFound;\n    if (_itemFound) {\n      emit SellerHasItem(_tradeId);\n    }\n  }\n\n\n  /**\n   * @notice The fulfill method from requests created by this contract\n   * @dev The recordChainlinkFulfillment protects this function from being called\n   * by anyone other than the oracle address that the request was sent to\n   * @param _requestId The ID that was generated for the request\n   * @param _itemFound The answer provided by the oracle re: item in inventory\n   */\n  function fulfillBuyerCheck(bytes32 _requestId, bool _itemFound)\n    external\n    recordChainlinkFulfillment(_requestId)\n  {\n    resolveTrade(_requestId, true, _itemFound);\n  }\n\n  function fulfillSellerCheck(bytes32 _requestId, bool _itemFound)\n    external\n    recordChainlinkFulfillment(_requestId)\n  {\n    resolveTrade(_requestId, false, _itemFound);\n  }\n\n  function resolveTrade(bytes32 _requestId, bool _buyer, bool _itemFound)\n    internal\n  {\n    // only run resolverlogic when item found\n    bytes32 _tradeId = requestTracker[_requestId];\n    if (_itemFound) {\n      tradeStatus[_tradeId].sellerHoldsItem = _itemFound && !_buyer;\n      tradeStatus[_tradeId].buyerHoldsItem = _itemFound && _buyer;\n      // if item is found in buyer inventory, send all deposited funds to seller and complete trade\n      if (_buyer) {\n        emit BuyerHasItem(_tradeId);\n        if (tradeStatus[_tradeId].depositBalance >= trade[_tradeId].askingPrice) {\n          resolvePayout(_tradeId);\n        }\n      }\n      else if (!_buyer) {\n        emit SellerHasItem(_tradeId);\n        if (tradeStatus[_tradeId].depositBalance >= 0 && tradeStatus[_tradeId].refundInitiated) {\n          refundBeforeTrade(_tradeId);\n        }\n      }\n    }\n    else { // update status as best as possible since item not found\n      if (_buyer) {\n        tradeStatus[_tradeId].buyerHoldsItem = false;\n      }\n      else {\n        tradeStatus[_tradeId].sellerHoldsItem = false;\n      }\n    }\n  }\n\n  // called via oracle fulfillment. ends trade.\n  // PRE: Item was found, in buyer inventory, and payment was requested. sale transfer lock\n  function resolvePayout(bytes32 _tradeId)\n    internal\n  {\n    Trade memory _tradeToResolve = trade[_tradeId];\n    uint256 _fee = calculateFee(_tradeToResolve.askingPrice);\n    uint256 _payout = _tradeToResolve.askingPrice - _fee;\n\n    // pay the seller\n    _tradeToResolve.seller.addr.transfer(_payout);\n\n    // finalize trade as completed.\n    tradeStatus[_tradeId].complete = true;\n    tradeStatus[_tradeId].depositBalance = 0;\n    withdrawableEth += _fee;\n    // update reputation ticker with successful trade.\n    reputation[trade[_tradeId].buyer.addr] += 1;\n    reputation[trade[_tradeId].seller.addr] += 1;\n\n    emit SaleCompleted(_tradeId);\n  }\n\n  // called by oracle fulfillment via logic in @fulfillSellerCheck && @resolveTrade. ends trade\n  // PRE: item was found, it was in seller inventory, and refund was requested. sale transfer lock\n  // POST: transfer ETH to buyer. LINK is in another function and can be done separately.\n  // POST: Trade still stays open and validated thanks to buyer payment to oracles\n  function refundBeforeTrade(bytes32 _tradeId)\n    internal\n    inProgressTradeOnly(_tradeId)\n  {\n    require(\n      tradeStatus[_tradeId].sellerHoldsItem\n        && (tradeStatus[_tradeId].refundInitiated\n        && !tradeStatus[_tradeId].sellTransferInitiated)\n      || now - tradeStatus[_tradeId].lockBlockTimestamp >= lockTime,\n      \"Seller doesnt have item or sale locked in. Try after lock period ends.\");\n\n    TradeStatus memory _tStatus = tradeStatus[_tradeId];\n    Trade memory _t = trade[_tradeId];\n\n    uint256 _refundFee = calculateFee(_tStatus.depositBalance);\n    (_t.buyer.addr).transfer(_tStatus.depositBalance - _refundFee);\n    withdrawableEth += _refundFee;\n    tradeStatus[_tradeId].depositBalance = 0;\n    emit RefundGranted(_tradeId);\n  }\n\n  // return: (final payout, fee)\n  function calculateFee(uint256 askingPrice) internal view returns (uint) {\n    return askingPrice.mul(contractFeePerc).div(100);\n  }\n\n  function viewWithdrawableEtherFees() external view onlyOwner returns (uint) {\n    return withdrawableEth;\n  }\n\n  function withdrawEtherFees(uint256 _amount) external onlyOwner {\n    require(_amount <= withdrawableEth); // don't want to withdraw people's payments!\n    msg.sender.transfer(_amount);\n    withdrawableEth -= _amount;\n  }\n\n  // so we can have sales!\n  function setFeePerc(uint8 _perc) external onlyOwner {\n    require(0 < _perc && _perc < 100);\n    contractFeePerc = _perc;\n  }\n\n  function setOraclePayment(uint256 _amount) external onlyOwner {\n    oraclePayment = _amount;\n  }\n\n  /**\n   * @notice Call this method if no response is received within 5 minutes\n   * @param _requestId The ID that was generated for the request to cancel\n   * @param _payment The payment specified for the request to cancel\n   * @param _callbackFunctionId The bytes4 callback function ID specified for\n   * the request to cancel\n   * @param _expiration The expiration generated for the request to cancel\n   */\n  function cancelRequest(\n    bytes32 _requestId,\n    uint256 _payment,\n    bytes4 _callbackFunctionId,\n    uint256 _expiration\n  )\n    public\n    onlyOwner\n  {\n    cancelChainlinkRequest(_requestId, _payment, _callbackFunctionId, _expiration);\n  }\n\n  function setLockTime(uint256 _time) public onlyOwner {\n    lockTime = _time;\n  }\n  /**\n   * @notice Deploy the contract with a specified address for the LINK\n   * @dev Sets the storage for the specified addresses\n   * @param _link The address of the LINK token contract\n   */\n  constructor(address _link) public {\n    oraclePayment = 1 * LINK;\n    contractFeePerc = 5;\n    lockTime = 1 hours;\n    if (_link == address(0)) {\n      setPublicChainlinkToken();\n    } else {\n      setChainlinkToken(_link);\n    }\n  }\n\n  function setOracleAddress(address _oracle, bytes32 _jobId) external onlyOwner {\n    setChainlinkOracle(_oracle);\n    jobId = _jobId;\n  }\n\n  /**\n   * @notice Called when LINK is sent to the contract via `transferAndCall`\n   * @dev The data payload's first 2 words will be overwritten by the `_sender` and `_amount`\n   * values to ensure correctness. Calls oracleRequest.\n   * @param _sender Address of the sender\n   * @param _amount Amount of LINK sent (specified in wei)\n   * @param _data Payload of the transaction\n   */\n  function onTokenTransfer(\n    address _sender,\n    uint256 _amount,\n    bytes memory _data\n  )\n    public\n    onlyLINK\n  {\n    emit LinkReceived(_sender, _amount, _data);\n    depositLinkFunds(_sender, _amount);\n  }\n\n  /**\n   * @notice Called when LINK is sent to the contract via `transferAndCall`\n   * @param _sender Address of the sender\n   * @param _amount Amount of LINK sent (specified in wei)\n   */\n  function depositLinkFunds(address _sender, uint256 _amount) private onlyLINK\n  {\n    withdrawableLinkTokens[_sender] = withdrawableLinkTokens[_sender].add(_amount);\n  }\n\n  /**\n   * @param _account Address to check balance of\n   * @return Balance of account (specified in wei)\n   */\n  function balanceOfLink(address _account) public view returns (uint256)\n  {\n    return withdrawableLinkTokens[_account];\n  }\n\n  /**\n   * @dev Allows the oracle operator to withdraw their LINK\n   * @param _recipient is the address the funds will be sent to\n   * @param _amount is the amount of LINK transfered from the Coordinator contract\n   */\n  function withdrawLink(address _recipient, uint256 _amount)\n    external\n    hasAvailableLINKFunds(_amount)\n  {\n    LinkTokenInterface link = LinkTokenInterface(chainlinkTokenAddress());\n    require(link.transfer(_recipient, link.balanceOf(address(this))), \"Unable to transfer\");\n    withdrawableLinkTokens[msg.sender] -= _amount;\n  }\n\n  /**\n   * @dev Reverts if the callback address is the LINK token\n   * @param _to The callback address\n   */\n  modifier checkCallbackAddress(address _to) {\n    require(_to != address(LINK), \"Cannot callback to LINK\");\n    _;\n  }\n\n  modifier onlyLINK() {\n    require(msg.sender == getChainlinkToken(), \"Must use LINK token\");\n    _;\n  }\n\n  modifier hasAvailableLINKFunds(uint256 _amount) {\n    require(withdrawableLinkTokens[msg.sender] >= _amount, \"Amount required for oracle payment is greater than withdrawable balance\");\n    _;\n  }\n\n  modifier onlyBuyer(bytes32 _tradeId) {\n    require(trade[_tradeId].buyer.addr == msg.sender);\n    _;\n  }\n\n  modifier onlySeller(bytes32 _tradeId) {\n    require(trade[_tradeId].seller.addr == msg.sender);\n    _;\n  }\n\n  modifier sellTransferIsInitiated(bytes32 _tradeId) {\n    require(tradeStatus[_tradeId].sellTransferInitiated);\n    _;\n  }\n\n  modifier inProgressTradeOnly(bytes32 _tradeId) {\n    require(tradeStatus[_tradeId].init && !tradeStatus[_tradeId].complete);\n    _;\n  }\n}\n",
  "sourcePath": "/Users/brent/Documents/eth-programming/steamTrading/contracts/SteamTrader.sol",
  "compiler": {
    "name": "solc",
    "version": "0.5.0+commit.1d4f565a.Emscripten.clang"
  },
  "schemaVersion": "3.0.17",
  "updatedAt": "2019-11-01T02:24:19.849Z",
  "networkType": "ethereum",
  "devdoc": {
    "details": "This contract is designed to work on multiple networks, including local test networks",
    "methods": {
      "balanceOfLink(address)": {
        "params": {
          "_account": "Address to check balance of"
        },
        "return": "Balance of account (specified in wei)"
      },
      "cancelRequest(bytes32,uint256,bytes4,uint256)": {
        "params": {
          "_callbackFunctionId": "The bytes4 callback function ID specified for the request to cancel",
          "_expiration": "The expiration generated for the request to cancel",
          "_payment": "The payment specified for the request to cancel",
          "_requestId": "The ID that was generated for the request to cancel"
        }
      },
      "constructor": {
        "details": "Sets the storage for the specified addresses",
        "params": {
          "_link": "The address of the LINK token contract"
        }
      },
      "fulfillBuyerCheck(bytes32,bool)": {
        "details": "The recordChainlinkFulfillment protects this function from being called by anyone other than the oracle address that the request was sent to",
        "params": {
          "_itemFound": "The answer provided by the oracle re: item in inventory",
          "_requestId": "The ID that was generated for the request"
        }
      },
      "getChainlinkToken()": {
        "details": "This is the public implementation for chainlinkTokenAddress, which is an internal method of the ChainlinkClient contract"
      },
      "isOwner()": {
        "details": "Returns true if the caller is the current owner."
      },
      "onTokenTransfer(address,uint256,bytes)": {
        "details": "The data payload's first 2 words will be overwritten by the `_sender` and `_amount` values to ensure correctness. Calls oracleRequest.",
        "params": {
          "_amount": "Amount of LINK sent (specified in wei)",
          "_data": "Payload of the transaction",
          "_sender": "Address of the sender"
        }
      },
      "owner()": {
        "details": "Returns the address of the current owner."
      },
      "transferOwnership(address)": {
        "details": "Transfers ownership of the contract to a new account (`newOwner`). Can only be called by the current owner."
      },
      "withdrawLink(address,uint256)": {
        "details": "Allows the oracle operator to withdraw their LINK",
        "params": {
          "_amount": "is the amount of LINK transfered from the Coordinator contract",
          "_recipient": "is the address the funds will be sent to"
        }
      }
    },
    "title": "SteamTrader is an example contract which requests data from the Chainlink network about steam inventories and enables trading of items"
  },
  "userdoc": {
    "methods": {
      "cancelRequest(bytes32,uint256,bytes4,uint256)": {
        "notice": "Call this method if no response is received within 5 minutes"
      },
      "constructor": "Deploy the contract with a specified address for the LINK",
      "fulfillBuyerCheck(bytes32,bool)": {
        "notice": "The fulfill method from requests created by this contract"
      },
      "getChainlinkToken()": {
        "notice": "Returns the address of the LINK token"
      },
      "onTokenTransfer(address,uint256,bytes)": {
        "notice": "Called when LINK is sent to the contract via `transferAndCall`"
      }
    }
  }
}